{
  "_format": "hh-sol-artifact-1",
  "contractName": "ExpenseTracker",
  "sourceName": "contracts/ExpenseTracker.sol",
  "abi": [
    {
      "anonymous": false,
      "inputs": [
        {
          "indexed": true,
          "internalType": "address",
          "name": "user",
          "type": "address"
        },
        {
          "indexed": false,
          "internalType": "uint256",
          "name": "_id",
          "type": "uint256"
        }
      ],
      "name": "DeleteTransaction",
      "type": "event"
    },
    {
      "anonymous": false,
      "inputs": [
        {
          "indexed": true,
          "internalType": "address",
          "name": "user",
          "type": "address"
        },
        {
          "indexed": false,
          "internalType": "uint256",
          "name": "_id",
          "type": "uint256"
        },
        {
          "indexed": false,
          "internalType": "uint256",
          "name": "_amount",
          "type": "uint256"
        },
        {
          "indexed": false,
          "internalType": "enum ExpenseTracker.Category",
          "name": "_category",
          "type": "uint8"
        },
        {
          "indexed": false,
          "internalType": "enum ExpenseTracker.PaymentType",
          "name": "_paymentType",
          "type": "uint8"
        },
        {
          "indexed": false,
          "internalType": "uint256",
          "name": "timestamp",
          "type": "uint256"
        },
        {
          "indexed": false,
          "internalType": "string",
          "name": "_description",
          "type": "string"
        }
      ],
      "name": "TransactionCreated",
      "type": "event"
    },
    {
      "anonymous": false,
      "inputs": [
        {
          "indexed": true,
          "internalType": "address",
          "name": "user",
          "type": "address"
        },
        {
          "indexed": false,
          "internalType": "uint256",
          "name": "_id",
          "type": "uint256"
        },
        {
          "indexed": false,
          "internalType": "uint256",
          "name": "_amount",
          "type": "uint256"
        },
        {
          "indexed": false,
          "internalType": "enum ExpenseTracker.Category",
          "name": "_category",
          "type": "uint8"
        },
        {
          "indexed": false,
          "internalType": "enum ExpenseTracker.PaymentType",
          "name": "_paymentType",
          "type": "uint8"
        },
        {
          "indexed": false,
          "internalType": "string",
          "name": "_description",
          "type": "string"
        }
      ],
      "name": "TransactionUpdated",
      "type": "event"
    },
    {
      "inputs": [
        {
          "internalType": "uint256",
          "name": "amount",
          "type": "uint256"
        },
        {
          "internalType": "enum ExpenseTracker.Category",
          "name": "category",
          "type": "uint8"
        },
        {
          "internalType": "enum ExpenseTracker.PaymentType",
          "name": "paymentType",
          "type": "uint8"
        },
        {
          "internalType": "string",
          "name": "description",
          "type": "string"
        }
      ],
      "name": "createTransaction",
      "outputs": [],
      "stateMutability": "nonpayable",
      "type": "function"
    },
    {
      "inputs": [
        {
          "internalType": "uint256",
          "name": "transactionId",
          "type": "uint256"
        }
      ],
      "name": "deleteTransaction",
      "outputs": [],
      "stateMutability": "nonpayable",
      "type": "function"
    },
    {
      "inputs": [],
      "name": "getAllTransactions",
      "outputs": [
        {
          "components": [
            {
              "internalType": "uint256",
              "name": "_id",
              "type": "uint256"
            },
            {
              "internalType": "uint256",
              "name": "_amount",
              "type": "uint256"
            },
            {
              "internalType": "enum ExpenseTracker.Category",
              "name": "_category",
              "type": "uint8"
            },
            {
              "internalType": "enum ExpenseTracker.PaymentType",
              "name": "_paymentType",
              "type": "uint8"
            },
            {
              "internalType": "uint256",
              "name": "_timestamp",
              "type": "uint256"
            },
            {
              "internalType": "string",
              "name": "_description",
              "type": "string"
            }
          ],
          "internalType": "struct ExpenseTracker.Transaction[]",
          "name": "",
          "type": "tuple[]"
        }
      ],
      "stateMutability": "view",
      "type": "function"
    },
    {
      "inputs": [
        {
          "internalType": "uint256",
          "name": "transactionId",
          "type": "uint256"
        }
      ],
      "name": "getTransactionById",
      "outputs": [
        {
          "components": [
            {
              "internalType": "uint256",
              "name": "_id",
              "type": "uint256"
            },
            {
              "internalType": "uint256",
              "name": "_amount",
              "type": "uint256"
            },
            {
              "internalType": "enum ExpenseTracker.Category",
              "name": "_category",
              "type": "uint8"
            },
            {
              "internalType": "enum ExpenseTracker.PaymentType",
              "name": "_paymentType",
              "type": "uint8"
            },
            {
              "internalType": "uint256",
              "name": "_timestamp",
              "type": "uint256"
            },
            {
              "internalType": "string",
              "name": "_description",
              "type": "string"
            }
          ],
          "internalType": "struct ExpenseTracker.Transaction",
          "name": "",
          "type": "tuple"
        }
      ],
      "stateMutability": "view",
      "type": "function"
    },
    {
      "inputs": [
        {
          "internalType": "uint256",
          "name": "id",
          "type": "uint256"
        },
        {
          "internalType": "uint256",
          "name": "amount",
          "type": "uint256"
        },
        {
          "internalType": "enum ExpenseTracker.Category",
          "name": "category",
          "type": "uint8"
        },
        {
          "internalType": "enum ExpenseTracker.PaymentType",
          "name": "paymentType",
          "type": "uint8"
        },
        {
          "internalType": "string",
          "name": "description",
          "type": "string"
        }
      ],
      "name": "updateTransaction",
      "outputs": [],
      "stateMutability": "nonpayable",
      "type": "function"
    }
  ],
  "bytecode": "0x6080604052348015600f57600080fd5b50611a5a8061001f6000396000f3fe608060405234801561001057600080fd5b50600436106100565760003560e01c8062e9c0061461005b57806327506f531461007757806397f04562146100955780639e66be74146100b1578063f4b30eaf146100cd575b600080fd5b61007560048036038101906100709190610f10565b6100fd565b005b61007f6103bc565b60405161008c91906111e6565b60405180910390f35b6100af60048036038101906100aa91906112b7565b61071a565b005b6100cb60048036038101906100c69190611351565b6109fd565b005b6100e760048036038101906100e29190610f10565b610c3d565b6040516100f49190611462565b60405180910390f35b60008060003373ffffffffffffffffffffffffffffffffffffffff1673ffffffffffffffffffffffffffffffffffffffff16815260200190815260200160002060008381526020019081526020016000206040518060c001604052908160008201548152602001600182015481526020016002820160009054906101000a900460ff16600281111561019257610191610f78565b5b60028111156101a4576101a3610f78565b5b81526020016002820160019054906101000a900460ff1660028111156101cd576101cc610f78565b5b60028111156101df576101de610f78565b5b8152602001600382015481526020016004820180546101fd906114b3565b80601f0160208091040260200160405190810160405280929190818152602001828054610229906114b3565b80156102765780601f1061024b57610100808354040283529160200191610276565b820191906000526020600020905b81548152906001019060200180831161025957829003601f168201915b505050505081525050905060008160000151036102c8576040517f08c379a00000000000000000000000000000000000000000000000000000000081526004016102bf90611567565b60405180910390fd5b6000803373ffffffffffffffffffffffffffffffffffffffff1673ffffffffffffffffffffffffffffffffffffffff168152602001908152602001600020600083815260200190815260200160002060008082016000905560018201600090556002820160006101000a81549060ff02191690556002820160016101000a81549060ff021916905560038201600090556004820160006103689190610e19565b50503373ffffffffffffffffffffffffffffffffffffffff167f7c709d18930bc948c17b828478f75d33a85c7a37dd8aea2ed2d21e507898c2e5836040516103b09190611596565b60405180910390a25050565b60606000600160003373ffffffffffffffffffffffffffffffffffffffff1673ffffffffffffffffffffffffffffffffffffffff168152602001908152602001600020549050600080600190505b82811161048d5760008060003373ffffffffffffffffffffffffffffffffffffffff1673ffffffffffffffffffffffffffffffffffffffff1681526020019081526020016000206000838152602001908152602001600020600001541461047a578180610476906115e0565b9250505b8080610485906115e0565b91505061040a565b5060008167ffffffffffffffff8111156104aa576104a9611628565b5b6040519080825280602002602001820160405280156104e357816020015b6104d0610e59565b8152602001906001900390816104c85790505b509050600080600190505b84811161070f5760008060003373ffffffffffffffffffffffffffffffffffffffff1673ffffffffffffffffffffffffffffffffffffffff168152602001908152602001600020600083815260200190815260200160002060000154146106fc576000803373ffffffffffffffffffffffffffffffffffffffff1673ffffffffffffffffffffffffffffffffffffffff16815260200190815260200160002060008281526020019081526020016000206040518060c001604052908160008201548152602001600182015481526020016002820160009054906101000a900460ff1660028111156105e2576105e1610f78565b5b60028111156105f4576105f3610f78565b5b81526020016002820160019054906101000a900460ff16600281111561061d5761061c610f78565b5b600281111561062f5761062e610f78565b5b81526020016003820154815260200160048201805461064d906114b3565b80601f0160208091040260200160405190810160405280929190818152602001828054610679906114b3565b80156106c65780601f1061069b576101008083540402835291602001916106c6565b820191906000526020600020905b8154815290600101906020018083116106a957829003601f168201915b5050505050815250508383815181106106e2576106e1611657565b5b602002602001018190525081806106f8906115e0565b9250505b8080610707906115e0565b9150506104ee565b508194505050505090565b60008060003373ffffffffffffffffffffffffffffffffffffffff1673ffffffffffffffffffffffffffffffffffffffff16815260200190815260200160002060008881526020019081526020016000206040518060c001604052908160008201548152602001600182015481526020016002820160009054906101000a900460ff1660028111156107af576107ae610f78565b5b60028111156107c1576107c0610f78565b5b81526020016002820160019054906101000a900460ff1660028111156107ea576107e9610f78565b5b60028111156107fc576107fb610f78565b5b81526020016003820154815260200160048201805461081a906114b3565b80601f0160208091040260200160405190810160405280929190818152602001828054610846906114b3565b80156108935780601f1061086857610100808354040283529160200191610893565b820191906000526020600020905b81548152906001019060200180831161087657829003601f168201915b505050505081525050905060008160000151036108e5576040517f08c379a00000000000000000000000000000000000000000000000000000000081526004016108dc90611567565b60405180910390fd5b85816020018181525050848160400190600281111561090757610906610f78565b5b9081600281111561091b5761091a610f78565b5b81525050838160600190600281111561093757610936610f78565b5b9081600281111561094b5761094a610f78565b5b8152505082828080601f016020809104026020016040519081016040528093929190818152602001838380828437600081840152601f19601f820116905080830192505050505050508160a001819052503373ffffffffffffffffffffffffffffffffffffffff167f9af6c566aa7f21a7cca913fc9a03bd01a9af86312654a78e72bf564859fbaf748888888888886040516109ec969594939291906116e0565b60405180910390a250505050505050565b60026000815480929190610a10906115e0565b9190505550600254600160003373ffffffffffffffffffffffffffffffffffffffff1673ffffffffffffffffffffffffffffffffffffffff168152602001908152602001600020819055506040518060c001604052806002548152602001868152602001856002811115610a8757610a86610f78565b5b8152602001846002811115610a9f57610a9e610f78565b5b815260200142815260200183838080601f016020809104026020016040519081016040528093929190818152602001838380828437600081840152601f19601f820116905080830192505050505050508152506000803373ffffffffffffffffffffffffffffffffffffffff1673ffffffffffffffffffffffffffffffffffffffff16815260200190815260200160002060006002548152602001908152602001600020600082015181600001556020820151816001015560408201518160020160006101000a81548160ff02191690836002811115610b8257610b81610f78565b5b021790555060608201518160020160016101000a81548160ff02191690836002811115610bb257610bb1610f78565b5b02179055506080820151816003015560a0820151816004019081610bd691906118e8565b509050503373ffffffffffffffffffffffffffffffffffffffff167f3ff8a0e8385acd3f39a5974d8a3327399f31e152edb1451b21b6c5caa4283164600254878787428888604051610c2e97969594939291906119ba565b60405180910390a25050505050565b610c45610e59565b60008060003373ffffffffffffffffffffffffffffffffffffffff1673ffffffffffffffffffffffffffffffffffffffff16815260200190815260200160002060008481526020019081526020016000206040518060c001604052908160008201548152602001600182015481526020016002820160009054906101000a900460ff166002811115610cda57610cd9610f78565b5b6002811115610cec57610ceb610f78565b5b81526020016002820160019054906101000a900460ff166002811115610d1557610d14610f78565b5b6002811115610d2757610d26610f78565b5b815260200160038201548152602001600482018054610d45906114b3565b80601f0160208091040260200160405190810160405280929190818152602001828054610d71906114b3565b8015610dbe5780601f10610d9357610100808354040283529160200191610dbe565b820191906000526020600020905b815481529060010190602001808311610da157829003601f168201915b50505050508152505090506000816000015103610e10576040517f08c379a0000000000000000000000000000000000000000000000000000000008152600401610e0790611567565b60405180910390fd5b80915050919050565b508054610e25906114b3565b6000825580601f10610e375750610e56565b601f016020900490600052602060002090810190610e559190610eb3565b5b50565b6040518060c00160405280600081526020016000815260200160006002811115610e8657610e85610f78565b5b815260200160006002811115610e9f57610e9e610f78565b5b815260200160008152602001606081525090565b5b80821115610ecc576000816000905550600101610eb4565b5090565b600080fd5b600080fd5b6000819050919050565b610eed81610eda565b8114610ef857600080fd5b50565b600081359050610f0a81610ee4565b92915050565b600060208284031215610f2657610f25610ed0565b5b6000610f3484828501610efb565b91505092915050565b600081519050919050565b600082825260208201905092915050565b6000819050602082019050919050565b610f7281610eda565b82525050565b7f4e487b7100000000000000000000000000000000000000000000000000000000600052602160045260246000fd5b60038110610fb857610fb7610f78565b5b50565b6000819050610fc982610fa7565b919050565b6000610fd982610fbb565b9050919050565b610fe981610fce565b82525050565b6003811061100057610fff610f78565b5b50565b600081905061101182610fef565b919050565b600061102182611003565b9050919050565b61103181611016565b82525050565b600081519050919050565b600082825260208201905092915050565b60005b83811015611071578082015181840152602081019050611056565b60008484015250505050565b6000601f19601f8301169050919050565b600061109982611037565b6110a38185611042565b93506110b3818560208601611053565b6110bc8161107d565b840191505092915050565b600060c0830160008301516110df6000860182610f69565b5060208301516110f26020860182610f69565b5060408301516111056040860182610fe0565b5060608301516111186060860182611028565b50608083015161112b6080860182610f69565b5060a083015184820360a0860152611143828261108e565b9150508091505092915050565b600061115c83836110c7565b905092915050565b6000602082019050919050565b600061117c82610f3d565b6111868185610f48565b93508360208202850161119885610f59565b8060005b858110156111d457848403895281516111b58582611150565b94506111c083611164565b925060208a0199505060018101905061119c565b50829750879550505050505092915050565b600060208201905081810360008301526112008184611171565b905092915050565b6003811061121557600080fd5b50565b60008135905061122781611208565b92915050565b6003811061123a57600080fd5b50565b60008135905061124c8161122d565b92915050565b600080fd5b600080fd5b600080fd5b60008083601f84011261127757611276611252565b5b8235905067ffffffffffffffff81111561129457611293611257565b5b6020830191508360018202830111156112b0576112af61125c565b5b9250929050565b60008060008060008060a087890312156112d4576112d3610ed0565b5b60006112e289828a01610efb565b96505060206112f389828a01610efb565b955050604061130489828a01611218565b945050606061131589828a0161123d565b935050608087013567ffffffffffffffff81111561133657611335610ed5565b5b61134289828a01611261565b92509250509295509295509295565b60008060008060006080868803121561136d5761136c610ed0565b5b600061137b88828901610efb565b955050602061138c88828901611218565b945050604061139d8882890161123d565b935050606086013567ffffffffffffffff8111156113be576113bd610ed5565b5b6113ca88828901611261565b92509250509295509295909350565b600060c0830160008301516113f16000860182610f69565b5060208301516114046020860182610f69565b5060408301516114176040860182610fe0565b50606083015161142a6060860182611028565b50608083015161143d6080860182610f69565b5060a083015184820360a0860152611455828261108e565b9150508091505092915050565b6000602082019050818103600083015261147c81846113d9565b905092915050565b7f4e487b7100000000000000000000000000000000000000000000000000000000600052602260045260246000fd5b600060028204905060018216806114cb57607f821691505b6020821081036114de576114dd611484565b5b50919050565b600082825260208201905092915050565b7f4e6f205472616e73616374696f6e20666f756e6420776974682074686973204960008201527f4400000000000000000000000000000000000000000000000000000000000000602082015250565b60006115516021836114e4565b915061155c826114f5565b604082019050919050565b6000602082019050818103600083015261158081611544565b9050919050565b61159081610eda565b82525050565b60006020820190506115ab6000830184611587565b92915050565b7f4e487b7100000000000000000000000000000000000000000000000000000000600052601160045260246000fd5b60006115eb82610eda565b91507fffffffffffffffffffffffffffffffffffffffffffffffffffffffffffffffff820361161d5761161c6115b1565b5b600182019050919050565b7f4e487b7100000000000000000000000000000000000000000000000000000000600052604160045260246000fd5b7f4e487b7100000000000000000000000000000000000000000000000000000000600052603260045260246000fd5b61168f81610fce565b82525050565b61169e81611016565b82525050565b82818337600083830152505050565b60006116bf83856114e4565b93506116cc8385846116a4565b6116d58361107d565b840190509392505050565b600060a0820190506116f56000830189611587565b6117026020830188611587565b61170f6040830187611686565b61171c6060830186611695565b818103608083015261172f8184866116b3565b9050979650505050505050565b60008190508160005260206000209050919050565b60006020601f8301049050919050565b600082821b905092915050565b60006008830261179e7fffffffffffffffffffffffffffffffffffffffffffffffffffffffffffffffff82611761565b6117a88683611761565b95508019841693508086168417925050509392505050565b6000819050919050565b60006117e56117e06117db84610eda565b6117c0565b610eda565b9050919050565b6000819050919050565b6117ff836117ca565b61181361180b826117ec565b84845461176e565b825550505050565b600090565b61182861181b565b6118338184846117f6565b505050565b5b818110156118575761184c600082611820565b600181019050611839565b5050565b601f82111561189c5761186d8161173c565b61187684611751565b81016020851015611885578190505b61189961189185611751565b830182611838565b50505b505050565b600082821c905092915050565b60006118bf600019846008026118a1565b1980831691505092915050565b60006118d883836118ae565b9150826002028217905092915050565b6118f182611037565b67ffffffffffffffff81111561190a57611909611628565b5b61191482546114b3565b61191f82828561185b565b600060209050601f8311600181146119525760008415611940578287015190505b61194a85826118cc565b8655506119b2565b601f1984166119608661173c565b60005b8281101561198857848901518255600182019150602085019450602081019050611963565b868310156119a557848901516119a1601f8916826118ae565b8355505b6001600288020188555050505b505050505050565b600060c0820190506119cf600083018a611587565b6119dc6020830189611587565b6119e96040830188611686565b6119f66060830187611695565b611a036080830186611587565b81810360a0830152611a168184866116b3565b90509897505050505050505056fea2646970667358221220d26d1abe814aed77267a842e7c68348e87dc034c3a3f4a2a1c0579b95ae19c4c64736f6c634300081b0033",
  "linkReferences": {},
  "deployedLinkReferences": {}
}